:020000040000FA
:100000000C9463000C948B000C948B000C948B006C
:100010000C948B000C948B000C948B000C94D107E7
:100020000C948B000C948B000C948B000C94850822
:100030000C948B000C948B000C948B000C948B0014
:100040000C9487070C948B000C9453080C942D0887
:100050000C948B000C948B000C948B000C948B00F4
:100060000C948B000C948B000000000024002700EF
:100070002A0000000008000201000003040700003D
:1000800000000000000000000000250028002B00F8
:1000900002000000002300260029000404040404D8
:1000A0000404040202020202020303030303030125
:1000B00002040810204080010204081020010204FC
:1000C00008102000410911241FBECFEFD8E0DEBF89
:1000D000CDBF11E0A0E0B1E0E2EBF0E302C005909B
:1000E0000D92AE34B107D9F722E0AEE4B1E001C021
:1000F0001D92A735B207E1F710E0C3E6D0E004C0D7
:100100002197FE010E941416C236D107C9F70E943A
:10011000BA090C9457180C9400008F929F92AF92DA
:10012000BF92FF920F931F93CF93DF93F0903D0206
:100130002BE02F1508F44CC020913F0208E512E097
:10014000021B110927FD1395000F111F000F111F2E
:1001500020913E02C8E8D0E0C21BD10927FDD3950B
:10016000CC0FDD1FCC0FDD1F4E010D2E000CAA0899
:10017000BB089801012E000C440B550B28193909B6
:100180004A095B09DC010E94721424EB30E040E074
:1001900050E00E944814820E931EA41EB51E8C16B9
:1001A0009D062CF0E801801691060CF4E4012297DC
:1001B000CC0FDD1F2FB7F8948F2D90E0FC01EE0FD0
:1001C000FF1FE80FF91FE85EFD4FD283C1832FBFE9
:1001D000DF91CF911F910F91FF90BF90AF909F90B3
:1001E0008F900895CF92DF92EF92FF92CF93DF939B
:1001F000B0914702A0E08111AB2F8091480290E0BE
:10020000880F991FAC014F565F4FC0904D02D090A0
:100210004E02E0904F02F090500230E020E0FA01F0
:10022000C591D491E881B90190E080E0EB23EA1315
:100230000AC02F5F3F4F6C157D058E059F0578F333
:100240006FEF7FEFCB01DF91CF91FF90EF90DF90C9
:10025000CF90089590E0FC01EE58FF4F2491FC01EF
:10026000E155FF4F3491FC01E556FF4FE491EE2339
:10027000C9F0222339F0233001F1A8F4213019F11B
:10028000223029F1F0E0EE0FFF1FEA57FF4FA59152
:10029000B4918FB7F894EC91611126C030953E234C
:1002A0003C938FBF08952730A9F02830C9F024303F
:1002B00049F7809180008F7D03C0809180008F7707
:1002C00080938000DFCF84B58F7784BDDBCF84B58A
:1002D0008F7DFBCF8091B0008F778093B000D2CF1D
:1002E0008091B0008F7DF9CF3E2BDACFCF93DF9393
:1002F00090E0FC01E155FF4F249185569F4FFC0192
:1003000084918823D1F090E0880F991FFC01E8596F
:10031000FF4FA591B491FC01EA57FF4FC591D491CD
:10032000623071F49FB7F8943C91822F80958323BB
:100330008C93E8812E2B28839FBFDF91CF91089566
:100340008FB7F894EC912E2B2C938FBFF6CFCF93D1
:1003500080911601863021F08F3F61F1CF91089591
:10036000E0E9F0E0C491C7FDF9CF61E086E00E94CA
:100370007601CC2309F48CC0C23009F0A1C0809171
:10038000B100887F83608093B10085EA8093B300D9
:100390008CE291E0A0E0B0E080936F019093700157
:1003A000A0937101B093720180917000826080937C
:1003B0007000D4CF86E080931601E0E9F0E0C491AC
:1003C000CF3F61F2C13021F150F0C23009F43EC09C
:1003D000C7FDC4CF61E086E00E947601CDCF14BC9A
:1003E00015BC84B5826084BD85B5816085BDE1EAB8
:1003F000F0E0E491F0E0EE0FFF1FEA57FF4F859128
:100400009491E5EBF0E0E491E0936E01C0E0ADCFB4
:10041000109280001092810080918100886080930A
:10042000810080918100816080938100E1EAF0E0A9
:10043000E491F0E0EE0FFF1FEA57FF4F8591949192
:10044000E5EBF0E0E491E0936D018FCF1092B00006
:100450001092B1008091B00082608093B0008091D2
:10046000B10081608093B100E1EAF0E0E491F0E056
:10047000EE0FFF1FEA57FF4F8591949190936C0107
:1004800080936B01E5EBF0E0E491E0936A016DCFBE
:1004900085B5887F836085BD82E587BD8CE291E06C
:1004A000A0E0B0E08093770190937801A093790168
:1004B000B0937A0180916E00826080936E004ECF7F
:1004C000C130F1F480918100887F81608093810048
:1004D00084ED94E190938900809388008CE291E010
:1004E000A0E0B0E08093730190937401A093750134
:1004F000B093760180916F00826080936F002ECF61
:10050000C23021F0C1112ACF84EDC7CF84ED3ECF98
:100510003FB7F8948091660190916701A0916801BE
:10052000B091690126B5A89B05C02F3F19F001962F
:10053000A11DB11D3FBFBA2FA92F982F8827BC013D
:10054000CD01620F711D811D911D42E0660F771F65
:10055000881F991F4A95D1F708958F929F92AF9265
:10056000BF92CF92DF92EF92FF924B015C010E940B
:1005700088026B017C010E9488026C197D098E093A
:100580009F09683E734081059105A8F321E0821A16
:100590009108A108B10888EEC80E83E0D81EE11CBE
:1005A000F11C81149104A104B10429F7FF90EF908C
:1005B000DF90CF90BF90AF909F908F9008952FB70E
:1005C000F89460916201709163018091640190914F
:1005D00065012FBF0895CF92DF92EF92FF920F93A4
:1005E0001F93CF93DF93CDB7DEB7C054D1400FB682
:1005F000F894DEBF0FBECDBF0E94DF02009149021A
:1006000010914A0220914B0230914C026B017C0107
:10061000C01AD10AE20AF30A97018601003D174089
:100620002105310590F480915102C05CDE4F0FB678
:10063000F894DEBF0FBECDBFDF91CF911F910F9118
:10064000FF90EF90DF90CF900895609349027093F0
:100650004A0280934B0290934C02109244021092F3
:10066000430210924202109241021092400262E054
:10067000809145020E94760161E070E080E090E0A8
:100680000E94AD0261E0809145020E94760160E027
:10069000809145020E942A01809146028551823054
:1006A00020F58BE291E10197F1F762E0809145023C
:1006B0000E9476018091520290E08230910538F0DC
:1006C000880F991F880F991F05970197F1F7F894E4
:1006D00080E00E94F2006F3F7F4F8F4F9F4F61F489
:1006E00010925102789480E0A0CF64E170E080E045
:1006F00090E00E94AD02D9CF81E00E94F2006F3FEE
:100700007F4F8F4F9F4F61F38E010F5F1F4F6E0121
:100710002FEBC21A2EEFD20A780180E00E94F2007D
:10072000F701608371838283938381E00E94F200EA
:10073000F7016483758386839783F8E0EF0EF11CDD
:10074000EC14FD0451F7789430E020E0F801C0800B
:10075000D180E280F3804481558166817781FFEF0B
:10076000CF16DF06EF06FF0631F04F3F8FEF580739
:100770006807780719F410925102B5CFF90183E0A8
:10078000F595E7958A95E1F7E05CFD4F8081880F4C
:10079000C416D506E606F70610F180832F5F3F4F9B
:1007A000085F1F4F2832310589F64091440220919D
:1007B000400280914102280F3327331F809142026B
:1007C000280F311D80914302820F932F911D99278D
:1007D0004817190681F681E08093510226CF816087
:1007E000DCCF0895FC01248135816217730748F43A
:1007F00080819181009729F0860F971FFC018081ED
:10080000089580E008959091160189130BC0E0E9E6
:10081000F0E0E4919FEF90931601E13049F028F069
:10082000E23061F060E00C942A0110926E00FACF81
:1008300090916F009D7F90936F00F4CF9091700026
:100840009D7F9093700091E09093B0009091B100E3
:10085000987F94609093B1001092B300E3CFAF9271
:10086000BF92CF92DF92EF92FF920F931F93CF939D
:10087000DF936C017B018B01040F151FEB015E01FF
:10088000AE18BF08C017D10759F06991D601ED9194
:10089000FC910190F081E02DC6010995892B79F733
:1008A000C501DF91CF911F910F91FF90EF90DF90E5
:1008B000CF90BF90AF900895FC01538D448D252FAC
:1008C00030E0842F90E0821B930B541710F0CF96EA
:1008D000089501970895FC01918D828D981761F01C
:1008E000A28DAE0FBF2FB11D5D968C91928D9F5F33
:1008F0009F73928F90E008958FEF9FEF08950F936D
:100900001F930E94DF0260938301709384018093A0
:100910008501909386018BE791E00E946B0497FF1D
:100920001DC00E94DF02009183011091840120917B
:10093000850130918601601B710B820B930B009136
:100940007F01109180012091810130918201601717
:10095000710782079307F8F28FEF9FEF1F910F91B6
:100960000895FC01918D828D981731F0828DE80FEA
:10097000F11D858D90E008958FEF9FEF0895FC01A4
:10098000918D228D892F90E0805C9F4F821B910971
:100990008F73992708958BE791E00E94BF0421E0AF
:1009A000892B09F420E0822F089580E090E0892BC4
:1009B00029F00E94CB0481110C9400000895FC01E1
:1009C000A48DA80FB92FB11DA35ABF4F2C91848DB0
:1009D00090E001968F739927848FA689B7892C930D
:1009E000A089B1898C91837080648C93938D848D60
:1009F000981306C00288F389E02D80818F7D808363
:100A00000895EF92FF920F931F93CF93DF93EC0122
:100A100081E0888F9B8D8C8D98131AC0E889F989A5
:100A2000808185FF15C09FB7F894EE89FF896083A8
:100A3000E889F98980818370806480839FBF81E029
:100A400090E0DF91CF911F910F91FF90EF9008956B
:100A5000F62E0B8D10E00F5F1F4F0F731127E02E46
:100A60008C8D8E110CC00FB607FCFACFE889F9897E
:100A7000808185FFF5CFCE010E94DF04F1CFEB8DA1
:100A8000EC0FFD2FF11DE35AFF4FF0829FB7F89452
:100A90000B8FEA89FB8980818062CFCFCF93DF9370
:100AA000EC01888D8823B9F0AA89BB89E889F98986
:100AB0008C9185FD03C0808186FD0DC00FB607FCBB
:100AC000F7CF8C9185FFF2CF808185FFEDCFCE01EE
:100AD0000E94DF04E9CFDF91CF91089510925C016D
:100AE000809154018823C1F080915201811114C07A
:100AF00080915101811110C060E085E00E942A01BF
:100B00001092540180915301882331F090E080E0ED
:100B10000E948D00109253010895FC010190002065
:100B2000E9F73197AF01481B590BBC018BE791E006
:100B30000C942F048F929F92AF92BF920F931F93AA
:100B4000CF93DF93CDB7DEB7A1970FB6F894DEBF92
:100B50000FBECDBF19A2423008F44AE08E010F5DEE
:100B60001F4F842E912CB12CA12CA50194010E9421
:100B7000B114E62FB901CA01EA30F4F4E05DD801FE
:100B8000EE938D01232B242B252B79F790E080E029
:100B9000109719F0CD010E948D05A1960FB6F8941B
:100BA000DEBF0FBECDBFDF91CF911F910F91BF90E0
:100BB000AF909F908F900895E95CE1CFCF92DF9244
:100BC000EF92FF92CF93DF936B017C016DE28BE795
:100BD00091E00E940105EC0166277727CB016C1993
:100BE0007D098E099F094AE00E949A058C0F9D1F7E
:100BF000DF91CF91FF90EF90DF90CF900895BC01EF
:100C0000990F880B990B97FD0C94DE054AE00C9424
:100C10009A050F931F93CF93DF93EC0188819981FD
:100C2000009759F02A813B812617370730F081E081
:100C3000DF91CF911F910F9108958B016F5F7F4FCF
:100C40000E943F17009759F0998388831B830A837A
:100C50002C813D81232B59F7FC011082E8CF80E0E5
:100C6000E7CFEF92FF920F931F93CF93DF9300D0C4
:100C7000CDB7DEB78C0169831A82FC01E480F58070
:100C8000FFEFEF1AFF0AB7010E940906882381F0DF
:100C9000F8012081318184819581BE016F5F7F4F92
:100CA000820F931F0E942818F801F582E48281E0E8
:100CB0000F900F90DF91CF911F910F91FF90EF90C8
:100CC0000895EF92FF920F931F93CF93DF93EC0160
:100CD0007B018A01BA010E940906288139818111AC
:100CE00014C02115310519F0C9010E94B6161982E8
:100CF00018821D821C821B821A82CE01DF91CF9145
:100D00001F910F91FF90EF9008951D830C83B70101
:100D1000C9010E942818F1CFFC01118210821382B0
:100D2000128215821482FB0101900020E9F73197AD
:100D3000AF01461B570B0C946106AF92BF92CF9246
:100D4000DF92EF92FF920F931F93CF93DF93EC010B
:100D50006B015A0179012417350720F48B2D5901B5
:100D6000E42EF82E6DE371E0CE010E948C06D601D0
:100D700014960D911C91A016B10628F5E016F10607
:100D800008F48701D601ED91FC911197E00FF11F56
:100D9000F08010826D917C916A0D7B1D611571054B
:100DA000F1F0FB0101900020E9F73197AF01461BFC
:100DB000570BCE010E946106F60180819181080FD8
:100DC000191FD801FC92CE01DF91CF911F910F9195
:100DD000FF90EF90DF90CF90BF90AF900895888103
:100DE0009981009711F00E94B616198218821D820F
:100DF0001C821B821A82E0CFFC01808191810097C6
:100E000011F00C94B6160895FC0180819181009731
:100E100011F00C94DC1260E070E0CB010895AF9209
:100E2000BF92CF92DF92EF92FF920F931F93CF93D7
:100E3000DF93DC01CD90DC901197C114D10439F01F
:100E40001496CD91DC918C017601209761F4DF91AD
:100E5000CF911F910F91FF90EF90DF90CF90BF90B7
:100E6000AF90089575015701BFEFAB1ABB0AF701A8
:100E70008081082E000C990B0E941813892B91F782
:100E80002197CC0DDD1D8881082E000C990B0E9446
:100E90001813892B29F0CE15DF0510F02197F3CF19
:100EA000AE014F5F5F4F4E195F09D80115965C93F5
:100EB0004E931497CE14DF0420F4B701C6010E94AC
:100EC0000418D801ED91FC91119714968D919C9185
:100ED000E80FF91F1082BBCFFB0144815581FC0153
:100EE000248135812417350778F08081918100971E
:100EF00059F0FB01608171816115710529F00E9433
:100F00002F1821E0892B09F020E0822F08951F92ED
:100F10000F920FB60F9211242F933F938F939F93AD
:100F2000AF93BF938091620190916301A09164019E
:100F3000B09165013091610123E0230F2D3758F501
:100F40000196A11DB11D20936101809362019093D0
:100F50006301A0936401B093650180916601909153
:100F60006701A0916801B09169010196A11DB11DB1
:100F70008093660190936701A0936801B093690123
:100F8000BF91AF919F918F913F912F910F900FBE85
:100F90000F901F90189526E8230F0296A11DB11DF2
:100FA000D2CF1F920F920FB60F9211242F933F931F
:100FB0004F935F936F937F938F939F93AF93BF9361
:100FC000EF93FF9380916F0190917001A091710157
:100FD000B0917201892B8A2B8B2BD1F190916A01F0
:100FE000E0916B01F0916C01808189278083809171
:100FF0006F0190917001A0917101B091720118166A
:1010000019061A061B069CF480916F0190917001DD
:10101000A0917101B09172010197A109B10980936A
:101020006F0190937001A0937101B0937201FF91D1
:10103000EF91BF91AF919F918F917F916F915F9150
:101040004F913F912F910F900FBE0F901F901895C9
:10105000809116010E940304EACF1F920F920FB6EF
:101060000F9211242F933F934F935F936F937F932E
:101070008F939F93AF93BF93EF93FF938BE791E091
:101080000E94DF04FF91EF91BF91AF919F918F91EB
:101090007F916F915F914F913F912F910F900FBE74
:1010A0000F901F9018951F920F920FB60F92112458
:1010B0002F938F939F93EF93FF93E0918B01F09188
:1010C0008C018081E0919101F091920182FD1BC021
:1010D0009081809194018F5F8F7320919501821789
:1010E00041F0E0919401F0E0E558FE4F958F809338
:1010F0009401FF91EF919F918F912F910F900FBECF
:101100000F901F9018958081F4CF1F920F920FB609
:101110000F9211242F933F934F935F936F937F937D
:101120008F939F93AF93BF93CF93DF93EF93FF93EF
:1011300080914E01C0913C02D0E087FF24C0109204
:1011400085001092840080914E018F5F80934E0144
:1011500080914E01082E000C990B8C179D0724F4EA
:1011600080914E018C30C4F1809184009091850073
:10117000049680349C4908F47AC080918400909150
:101180008500049676C080914E01082E000C990BC4
:101190008C179D07C4F6E0914E018E2FEE0F990B30
:1011A000FC01EE0FFF1FE80FF91FE85EFD4F808185
:1011B00086FFC9CFE0914E018E2FEE0F990BFC01F7
:1011C000EE0FFF1FE80FF91FE85EFD4F808160E022
:1011D0008F730E942A01B7CF20918400309185003F
:1011E000E0914E018E2FEE0F990BFC01EE0FFF1FC9
:1011F000E80FF91FE85EFD4F81819281820F931FF6
:101200009093890080938800E0914E018E2FEE0F1D
:10121000990BFC01EE0FFF1FE80FF91FE85EFD4F71
:10122000808186FF11C0E0914E018E2FEE0F990B49
:10123000FC01EE0FFF1FE80FF91FE85EFD4F8081F4
:1012400061E08F730E942A01FF91EF91DF91CF91AE
:10125000BF91AF919F918F917F916F915F914F91CE
:101260003F912F910F900FBE0F901F90189580E423
:101270009CE990938900809388008FEF80934E01C2
:10128000E3CF10927E0110927D0188EE93E0A0E002
:10129000B0E080937F0190938001A0938101B0938F
:1012A000820185E291E090937C0180937B0185EC43
:1012B00090E0909388018093870184EC90E0909374
:1012C0008A018093890180EC90E090938C01809357
:1012D0008B0181EC90E090938E0180938D0182ECE4
:1012E00090E09093900180938F0186EC90E0909332
:1012F00092018093910110929401109295011092A5
:1013000096011092970187E0809345028BE08093CD
:101310004602E6EBF0E0E491E0934702E2EAF0E017
:10132000E491E093480280E89EE3A0E0B0E080937F
:101330004D0290934E02A0934F02B09350028091C1
:101340003C028C3098F491E0980F90933C0280938B
:101350003D0290E0FC01EE0FFF1FE80FF91FE85E71
:10136000FD4F88EB9BE09283818308958FEF8093FC
:101370003D020895CF93DF93CDB7DEB762970FB6E6
:10138000F894DEBF0FBECDBF789484B5826084BD73
:1013900084B5816084BD85B5826085BD85B5816079
:1013A00085BD80916E00816080936E0010928100F7
:1013B00080918100826080938100809181008160B2
:1013C0008093810080918000816080938000809173
:1013D000B10084608093B1008091B00081608093FF
:1013E000B00080917A00846080937A0080917A00C6
:1013F000826080937A0080917A00816080937A0085
:1014000080917A00806880937A001092C100E09108
:101410008B01F0918C0182E08083E0918701F09153
:1014200088011082E0918901F0918A018FEC80831C
:1014300010929301E0918F01F091900186E08083FA
:10144000E0918D01F0918E01808180618083E09137
:101450008D01F0918E01808188608083E0918D0103
:10146000F0918E01808180688083E0918D01F09100
:101470008E0180818F7D808362E0809145020E9491
:1014800076010E94DF02605D7740810991096093D7
:10149000490270934A0280934B0290934C0287E377
:1014A0008093520261E083E00E94760161E085E072
:1014B0000E94760161E086E00E94760180913D0203
:1014C0008C3008F051C061E084E00E947601809188
:1014D0003D02282F30E0F901EE0FFF1FE20FF31F4E
:1014E000E85EFD4F9081907C9460908310923E0264
:1014F00010923F022CE0622F0E940116829FB001E1
:10150000112430E020E0AB01420F531FFA01EE0F2F
:10151000FF1FE40FF51FE85EFD4F908196FD16C09A
:101520002F5F3F4F2C30310571F781110FC01092A2
:10153000800082E0809381001092850010928400E8
:10154000B19A80916F00826080936F00E0913D02BC
:101550008E2F90E0FC01EE0FFF1FE80FF91FE85EF1
:10156000FD4F80818064808390E080E00E948D0048
:1015700060E083E00E942A0160E085E00E942A0189
:1015800060E086E00E942A0160ED77E080E090E074
:101590000E94AD0203E010E061E083E00E942A01B6
:1015A00068EC70E080E090E00E94AD0260E083E0D3
:1015B0000E942A0168EC70E080E090E00E94AD0299
:1015C0000150110949F78AE590E00E948D0064EF0F
:1015D00071E080E090E00E94AD0290E080E00E9427
:1015E0008D0064EF71E080E090E00E94AD020E9407
:1015F000DF0260935D0170935E0180935F019093C1
:1016000060010E94DF022B013C0180915D019091FD
:101610005E01A0915F01B0916001A3019201281BBE
:10162000390B4A0B5B0BDA01C90180319742A105E6
:10163000B10528F080915C0181110E946E050E9425
:10164000EB02882341F0809146028C3009F463C09C
:1016500048F48B3001F1C12CD12C90ECE92E9FE79E
:10166000F92E43C085518230B0F710914202612FAC
:1016700070E0762F662766277F7780914302682B7C
:1016800090E080E00E9426132DEC3CEC4CEC5DE3F6
:101690000E9487135CC06091420270E090E080E09D
:1016A0000E9426136B017C011091430217FF0AC0B0
:1016B000AC019B0160E070E080E89FEB0E94E214C7
:1016C0006B017C011F70612F70E090E080E00E9450
:1016D00028132DEC3CEC4CEC5DE30E948713A70132
:1016E00096010E94E3146B017C010E94EB028823A7
:1016F00009F402C2809146028B3030F08D3080F1C7
:101700008551823008F4D8C1812C912C80ECA82E10
:101710008FE7B82E43C010914202612F70E090E035
:1017200080E00E9426136B017C01609143026F7080
:1017300070E090E080E00E9428132DEC3CEC4CEC33
:101740005DE30E948713A70196010E94E3146B01D9
:101750007C0117FFCACFF7FAF094F7F8F094C5CFE1
:101760006091410270E090E080E00E9428132DEC2F
:101770003CEC4CEC5DE30E9487134B015C016091F3
:10178000400270E090E080E00E9428139B01AC01D1
:10179000C501B4010E94E3144B015C01A70196014D
:1017A000C701B6010E94FC158111A6C1A5019401D3
:1017B000C501B4010E94FC1581119EC11092500117
:1017C00010924F0120E030E040E751E4C701B6013C
:1017D0000E94211387FD82C120E030E044E352E4FF
:1017E000C701B6010E94F715181634F4C12CD12C8C
:1017F00004E3E02E02E4F02EC0920D01D0920E011F
:10180000E0920F01F092100120E030E040EA51E454
:10181000C501B4010E94211387FD67C120E030E0BB
:101820004EEB52E4C501B4010E94F715181634F4CA
:10183000812C912CBEEBAB2EB2E4BB2E8092090121
:1018400090920A01A0920B01B0920C0180911501B7
:10185000882311F180E480937C0080917A00806479
:1018600080937A0080917A0086FDFCCFA091780069
:10187000B09179002FE030E00E940D162FEF33E099
:1018800040E050E00E944814275E3F4F4F4F5F4FAB
:10189000309314012093130180915C01811170C079
:1018A000009113011091140180900D0190900E0190
:1018B000A0900F01B0901001F0905201B801012EDC
:1018C000000C880B990B0E942813A50194010E941B
:1018D000211318160CF446C2F11007C081E0809362
:1018E000520161E083E00E942A01009111011091F0
:1018F0001201C0900901D0900A01E0900B01F09014
:101900000C01B801012E000C880B990B0E942813C2
:10191000A70196010E94211318160CF43CC2809175
:10192000510181110DC081E0809351010E94A701F6
:1019300066E970E080E090E00E94AD020E94A7019D
:101940008091540190915201911105C090915101E3
:10195000992309F43DC2811113C08AE590E00E94E9
:101960008D0011E01093530164E670E080E090E098
:101970000E94AD0261E085E00E942A0110935401AB
:101980008091580190915901A0915A01B0915B0149
:10199000A3019201281B390B4A0B5B0BDA01C90129
:1019A000803D9740A105B10508F46AC083E391E04A
:1019B0000E948D0580915601909157010E94FF056C
:1019C00088E391E00E948D0560910D0170910E01F8
:1019D00080910F01909110010E94C115CB010E94CE
:1019E000FF058FE391E00E948D05609109017091E0
:1019F0000A0180910B0190910C010E94C115CB014D
:101A00000E94FF058FE391E00E948D0580915201B5
:101A100090E00E94FF058FE391E00E948D056091A8
:101A2000540170E090E080E04AE00E949A058BE368
:101A300091E00E948D05809156019091570180316F
:101A4000974224F01092570110925601409258018B
:101A50005092590160925A0170925B018091560137
:101A6000909157010A969093570180935601809167
:101A70005501882329F081E08093150110925501CA
:101A80008BE791E00E94BF04181619060CF03DC4C4
:101A90006DE371E0CE010D960E948C060E947F04DA
:101AA00097FDB2C18A30910509F4AEC1682FCE010D
:101AB0000D960E943106F2CF609140027091410272
:101AC00076276727762790E080E00E9426132DEC8A
:101AD0003CEC4CEC5DE30E9487135ECEC12CD12C14
:101AE00010E7E12E11E4F12E87CE812C912CA0EA93
:101AF000AA2EA1E4BA2EA2CE80914F01909150015E
:101B000001969093500180934F0106970CF49ECE5E
:101B10006091040170910501809106019091070187
:101B200020910801222309F4F0C02DEC3CEC4CEC90
:101B30005DE30E94E31460930401709305018093B8
:101B400006019093070120E030E04CE052E40E944F
:101B5000F71587FF1092080180915401882309F43A
:101B6000EFC060E070E080E090EC20915301C12C68
:101B7000D12CE12CFFEBFF2E211103C0C12CD12C65
:101B800076012091040130910501409106015091A8
:101B900007010E94E314A70196010E94E3146B0160
:101BA0007C010E94841224E130E040E050E00E9479
:101BB00048146A507109810991090E94281320E094
:101BC00030E040E251E40E944F15A70196010E94C7
:101BD000E3146B017C0120E030E040EA51E40E9414
:101BE000211387FDB1C020E030E04CE052E4C70192
:101BF000B6010E94F715181634F4C12CD12CECE074
:101C0000EE2EE2E4FE2EC0920D01D0920E01E09283
:101C10000F01F09210010E94841228E230E040E0AF
:101C200050E00E94481464517109810991090E9491
:101C3000281320E030E048EC52E40E944F15209138
:101C400000013091010140910201509103010E9475
:101C5000E3144B015C018092000190920101A0927B
:101C60000201B092030120E030E048EC51E46091C1
:101C70000D0170910E0180910F01909110010E9451
:101C8000E2142AE939E949E95EE30E9487139B01DE
:101C9000AC0180915301811107C080915401C12C86
:101CA000D12C7601882331F0C12CD12C60EAE62EAC
:101CB00060ECF62EC501B4010E94E314A701960161
:101CC0000E94E3146B017C0120E030E040E252E42A
:101CD0000E94211387FD3FC020E030E044EB52E436
:101CE000C701B6010E94F715181634F4C12CD12C87
:101CF00094EBE92E92E4F92EC0920901D0920A01E8
:101D0000E0920B01F0920C01A1CD2DEC3CEC4CECDF
:101D10005DE30E94E21460930401709305018093D7
:101D200006019093070120E030E040EA51E40E9470
:101D3000211318160CF410CF81E0809308010CCF0A
:101D400060E070E0CB0111CFC12CD12C70EAE72EFE
:101D500071E4F72E58CFC12CD12C80E2E82E82E41A
:101D6000F82ECACFB80163507109072E000C880BFA
:101D7000990B0E9428139B01AC01C501B4010E947C
:101D8000211318160CF4B1CDFF2009F4AECD10923A
:101D9000520160E0A7CDB80165507109072E000C13
:101DA000880B990B0E9428139B01AC01C701B60157
:101DB0000E94211318160CF4C3CD80915101882381
:101DC00009F4BECD1092510186E00E940304B8CD03
:101DD000882309F4D5CD60E085E00E942A011092A5
:101DE000540168EE73E080E090E00E94AD0290E064
:101DF00080E00E948D001092530164E670E080E064
:101E000090E00E94AD02BCCDCE010D960E940F075E
:101E10000D851E850115110571F0F80181918F0165
:101E2000882349F0082E000C990B0E94FC17F8013A
:101E300031978083F2CF0E94DF0260935D0170933F
:101E40005E0180935F01909360016EE371E0CE01CB
:101E500001960E948C0689899A89892B61F0ED840C
:101E6000FE8469817A81C7010E943D188C010E1998
:101E70001F09892B11F40FEF1FEFCE0101960E946D
:101E8000FC060F3F1F4F09F4ECC06FE371E0CE0179
:101E900007960E948C066EE371E0CE0101960E94C7
:101EA0008C06C988DA88C114D10409F460C0AD80F9
:101EB000BE80A114B10409F45AC06B847C846A18F2
:101EC0007B080D851E8561147104A1F469817A81F6
:101ED000C8010E943D188C01009709F448C06F8129
:101EE00078854B855C850E9404188B859C85080F3E
:101EF000191FECCF77FC0EC089809A807601C8014B
:101F0000B4010E943D180097D9F18A0D9B1DE60C83
:101F1000F71CF6CF780169817A81C8010E943D18CB
:101F20005C01009701F16C01C01AD10AA601B80149
:101F3000C7010E940418EC0CFD1C6F8178854B854D
:101F40005C85C7010E9404188B859C85E80EF91EEC
:101F50000D811E810A0D1B1D89899A89860D971D89
:101F60009A8B898BD8CFB801C7010E942818CE015F
:101F700001960E94FC06CE0107960E94FC0665CFE2
:101F8000CE14DF04A1F38F8598898E159F0560F428
:101F9000B7016F5F7F4FC8010E943F17009739F369
:101FA0009E878D87F88AEF8609891A890150110961
:101FB00017FDDDCF58018D809E8081149104B9F208
:101FC000C988DA88C114D10491F2C814D90478F20E
:101FD0000C151D0520F0560121E0A21AB108ED8470
:101FE000FE8429803A80C7010FEF1FEF27014A0CBA
:101FF0005B1C4816590678F0B1010E943D18009705
:1020000051F09C012E193F09A216B30608F498015D
:1020100001968901EECF17FDAACF800E911EC70150
:10202000880D991DA60148195909BC01860D971DF7
:102030000E940D1889899A89860D971D9A8B898B24
:102040002D853E85820F931FFC0110828D859E8514
:102050006F8178854B855C85800F911F0E940418E5
:10206000A5CF61E471E0CE0101960E948C06BE010D
:102070006F5F7F4FCE010D960E946C07182FCE0127
:1020800001960E94FC06112309F452C149895A891C
:102090004530510508F42EC118861F821A8619860C
:1020A0001C861B866D857E856115710521F0CE012C
:1020B00007960E9461062B853C8544E050E0BE01F6
:1020C000695F7F4FCE0101960E949D068F819885A2
:1020D000009709F467C069817A816115710509F477
:1020E0005FC049855A852D813E814217530708F408
:1020F00057C00E9428188D819E819C878B871E82E5
:102100001D82CE0101960E94FC06CE0107960E9418
:102110000F07E0901301F090140110E000E0B12CE3
:10212000CB84DC840C151D0508F0CCC0B801CE01B1
:1021300007960E94F2030F5F1F4F843509F043C0DA
:102140000C151D0568F76DE371E0CE0101960E9444
:102150008C068B859C850817190790F4B801CE0171
:1021600007960E94F203282F082E000C330B2053F1
:1021700031092A30310508F45AC0803209F459C0B7
:10218000CE0101960E9404079B012951310920319B
:10219000310508F457C0CE0101960E94FC06C0CF5D
:1021A0000E94B61689819A8198878F838B819C8142
:1021B0009A8789878D819E819C878B871A82198255
:1021C0001C821B829CCF883409F044C00C151D056D
:1021D00008F0A6CF6DE371E0CE0101960E948C0657
:1021E0008B859C850817190790F4B801CE010796D6
:1021F0000E94F203282F082E000C330B20533109C4
:102200002A30310508F442C0803209F441C0CE01C1
:1022100001960E9404079B01285231092833310599
:1022200008F0B9CF7093120160931101B4CF8032DE
:1022300019F40F5F1F4F8DCF682FCE0101960E94BA
:102240003106F7CF7B017093140160931301BB2417
:10225000B394A1CF863409F063CF809154018823D1
:1022600001F160E085E00E942A011092540181E0B2
:1022700080935C0180915301882309F451CF90E051
:1022800080E00E948D00109253014ACF803219F4F1
:102290000F5F1F4FA5CF682FCE0101960E94310618
:1022A000F7CF61E085E00E942A01DD24D394D0922B
:1022B0005401D0925C018AE590E00E948D00D0929A
:1022C00053012ECFBB2081F01092150181E0809345
:1022D0005501F0921401E092130110925C01CE01BD
:1022E00007960E94FC060DC081E0809315011092B4
:1022F0005501F3CF0E946E0581E080931501109285
:102300005501CE010D960E94FC0664E670E080E067
:1023100090E00E94AD0280E090E0892B09F471C941
:102320000E94CB04882309F46CC90E94000069C98B
:1023300066E471E0CE0101960E948C06BE016F5FDB
:102340007F4FCE010D960E946C07182FCE0101968B
:102350000E94FC06112329F129893A8942E050E0C4
:10236000BE01635F7F4FCE0101960E949D06CE01A4
:1023700001960E940F07CE0101960E9404079B015F
:10238000295131092031310548F4709314016093CB
:1023900013011092150181E080935501CE01019641
:1023A000A0CF69E471E0CE0101960E948C06BE01C7
:1023B0006F5F7F4FCE010D960E946C07182FCE01E4
:1023C00001960E94FC0629893A891123E1F042E036
:1023D00050E0BE01635F7F4FCE0101960E949D06D3
:1023E000CE0101960E940F07CE0101960E940407BC
:1023F0009B01285231092833310580F67093120170
:1024000060931101CBCF232B09F47BCF6CE471E0F7
:102410008D859E850E941F18892B09F072CF8091AF
:1024200054018823A9F060E085E00E942A011092FF
:10243000540181E080935C0180915301882309F469
:1024400060CF90E080E00E948D001092530159CF40
:1024500061E085E00E942A0111E01093540110937D
:102460005C018AE590E00E948D001093530149CFF2
:102470008F929F92AF92BF92CF92DF92EF92FF9294
:10248000CF93DF93EC01688179818A819B8161150B
:1024900071058105910521F464E279ED8BE597E002
:1024A0002DE133EF41E050E00E94481449015A0108
:1024B0009B01AC01A7EAB1E40E9467146B017C01A7
:1024C000ACEEB4EFA50194010E947514C60ED71EA0
:1024D000E81EF91EF7FE06C081E0C81AD108E1081F
:1024E00080E8F80AC882D982EA82FB82C701B60175
:1024F0009F77DF91CF91FF90EF90DF90CF90BF90CB
:10250000AF909F908F9008958F929F92AF92BF92BD
:10251000CF92DF92EF92FF926091170170911801B4
:102520008091190190911A0161157105810591053C
:1025300021F464E279ED8BE597E02DE133EF41E0A2
:1025400050E00E94481449015A019B01AC01A7EADE
:10255000B1E40E9467146B017C01ACEEB4EFA501FD
:1025600094010E947514C60ED71EE81EF91EF7FED0
:1025700006C081E0C81AD108E10880E8F80AC092D4
:102580001701D0921801E0921901F0921A01C701C7
:10259000B6019F77FF90EF90DF90CF90BF90AF9004
:1025A0009F908F9008956093170170931801809306
:1025B000190190931A0108951F93FC019927882708
:1025C000BC01E89411911032E9F3193010F01E307B
:1025D000C8F31B3251F01D3249F4689406C00E94C2
:1025E0000313610F711D811D911D119110531A303C
:1025F000B0F33EF490958095709561957F4F8F4F25
:102600009F4F1F910895592F482F372F262F660F60
:10261000771F881F991F660F771F881F991F620FEA
:10262000731F841F951F660F771F881F991F0895BA
:1026300091110C94F413803219F089508550C8F729
:1026400008950E94631308F481E00895E89409C096
:1026500097FB3EF490958095709561957F4F8F4FD5
:102660009F4F9923A9F0F92F96E9BB279395F695EB
:10267000879577956795B795F111F8CFFAF4BB0F69
:1026800011F460FF1BC06F5F7F4F8F4F9F4F16C0CD
:10269000882311F096E911C0772321F09EE8872F57
:1026A000762F05C0662371F096E8862F70E060E013
:1026B0002AF09A95660F771F881FDAF7880F96958C
:1026C000879597F90895990F0008550FAA0BE0E830
:1026D000FEEF16161706E807F907C0F012161306E4
:1026E000E407F50798F0621B730B840B950B39F424
:1026F0000A2661F0232B242B252B21F408950A268A
:1027000009F4A140A6958FEF811D811D08950E94B7
:102710009A130C940E140E94001438F00E940714AF
:1027200020F0952311F00C94F7130C94FD13112451
:102730000C9442140E941F1470F3959FC1F3950FDF
:1027400050E0551F629FF001729FBB27F00DB11D35
:10275000639FAA27F00DB11DAA1F649F6627B00DC5
:10276000A11D661F829F2227B00DA11D621F739FAE
:10277000B00DA11D621F839FA00D611D221F749FBC
:102780003327A00D611D231F849F600D211D822F03
:10279000762F6A2F11249F5750409AF0F1F088232A
:1027A0004AF0EE0FFF1FBB1F661F771F881F915057
:1027B0005040A9F79E3F510580F00C94F7130C94FC
:1027C00042145F3FE4F3983ED4F38695779567957E
:1027D000B795F795E7959F5FC1F7FE2B880F911D81
:1027E0009695879597F9089599278827089597F9D9
:1027F0009F6780E870E060E008959FEF80EC0895A7
:1028000000240A94161617061806090608950024CF
:102810000A9412161306140605060895092E039449
:10282000000C11F4882352F0BB0F40F4BF2B11F4BD
:1028300060FF04C06F5F7F4F8F4F9F4F089557FD1C
:102840009058440F551F59F05F3F71F04795880F1E
:1028500097FB991F61F09F3F79F0879508951216B5
:1028600013061406551FF2CF4695F1DF08C0161661
:1028700017061806991FF1CF869571056105089412
:102880000895E894BB2766277727CB0197F9089529
:10289000052E97FB1EF400940E945F1457FD07D08D
:1028A0000E94B11407FC03D04EF40C945F145095B1
:1028B0004095309521953F4F4F4F5F4F089590952C
:1028C0008095709561957F4F8F4F9F4F08950E941F
:1028D000D314A59F900DB49F900DA49F800D911DC2
:1028E00011240895B7FF0C9467140E946714821B8B
:1028F000930B08952F923F924F925F926F927F9227
:102900008F929F92AF92BF92CF92DF92EF92FF92FF
:102910000F931F93CF93DF93CDB7DEB7CA1BDB0BAB
:102920000FB6F894DEBF0FBECDBF09942A88398850
:1029300048885F846E847D848C849B84AA84B98457
:10294000C884DF80EE80FD800C811B81AA81B98163
:10295000CE0FD11D0FB6F894DEBF0FBECDBFED0177
:102960000895A1E21A2EAA1BBB1BFD010DC0AA1FD0
:10297000BB1FEE1FFF1FA217B307E407F50720F0E8
:10298000A21BB30BE40BF50B661F771F881F991F63
:102990001A9469F760957095809590959B01AC01AC
:1029A000BD01CF010895A29FB001B39FC001A39FB5
:1029B000700D811D1124911DB29F700D811D112478
:1029C000911D08955058BB27AA270E94FA140C9411
:1029D0000E140E94001438F00E94071420F039F4FD
:1029E0009F3F19F426F40C94FD130EF4E095E7FBD9
:1029F0000C94F713E92F0E941F1458F3BA176207BB
:102A000073078407950720F079F4A6F50C94411418
:102A10000EF4E0950B2EBA2FA02D0B01B9019001F9
:102A20000C01CA01A0011124FF27591B99F0593F3D
:102A300050F4503E68F11A16F040A22F232F342F85
:102A40004427585FF3CF469537952795A795F040D3
:102A50005395C9F77EF41F16BA0B620B730B840BE8
:102A6000BAF09150A1F0FF0FBB1F661F771F881FA0
:102A7000C2F70EC0BA0F621F731F841F48F48795F8
:102A800077956795B795F7959E3F08F0B0CF9395EA
:102A9000880F08F09927EE0F9795879508950E9463
:102AA00063150C940E140E94071458F00E94001431
:102AB00040F029F45F3F29F00C94F71351110C9466
:102AC00042140C94FD130E941F1468F39923B1F370
:102AD000552391F3951B550BBB27AA276217730744
:102AE000840738F09F5F5F4F220F331F441FAA1FD8
:102AF000A9F335D00E2E3AF0E0E832D09150504094
:102B0000E695001CCAF72BD0FE2F29D0660F771F41
:102B1000881FBB1F261737074807AB07B0E809F027
:102B2000BB0B802DBF01FF2793585F4F3AF09E3FAC
:102B3000510578F00C94F7130C9442145F3FE4F3C2
:102B4000983ED4F3869577956795B795F7959F5FEF
:102B5000C9F7880F911D9695879597F90895E1E03B
:102B6000660F771F881FBB1F621773078407BA079A
:102B700020F0621B730B840BBA0BEE1F88F7E095F5
:102B800008950E94C8156894B1110C9442140895D8
:102B90000E94271488F09F5798F0B92F9927B751B2
:102BA000B0F0E1F0660F771F881F991F1AF0BA95F1
:102BB000C9F714C0B13091F00E944114B1E00895FA
:102BC0000C944114672F782F8827B85F39F0B93FEC
:102BD000CCF3869577956795B395D9F73EF49095A4
:102BE0008095709561957F4F8F4F9F4F08950E94FC
:102BF000631308F48FEF08950E946313880B990BF9
:102C00000895991B79E004C0991F961708F0961B48
:102C1000881F7A95C9F7809508950E94D314B7FF4D
:102C20000895821B930B0895EE0FFF1F0590F491FA
:102C3000E02D09940F931F93CF93DF93823091057A
:102C400010F482E090E0E0915502F091560230E0FD
:102C500020E0B0E0A0E0309799F42115310509F4A7
:102C60004AC0281B390B24303105D8F58A819B8155
:102C70006115710589F1FB0193838283FE0111C007
:102C8000408151810281138148175907E0F04817AC
:102C9000590799F4109761F012960C9312971396B6
:102CA0001C933296CF01DF91CF911F910F91089520
:102CB0000093550210935602F4CF2115310551F0BF
:102CC0004217530738F0A901DB019A01BD01DF016A
:102CD000F801C1CFEF01F9CF9093560280935502CE
:102CE000CDCFFE01E20FF31F819391932250310962
:102CF00039832883D7CF2091530230915402232B5C
:102D000041F420911D0130911E0130935402209313
:102D1000530220911B0130911C012115310541F412
:102D20002DB73EB740911F0150912001241B350B58
:102D3000E0915302F0915402E217F307A0F42E1B26
:102D40003F0B2817390778F0AC014E5F5F4F24170F
:102D5000350748F04E0F5F1F5093540240935302C3
:102D6000819391939FCFF0E0E0E09CCFCF93DF93EE
:102D70000097E9F0FC01329713821282A09155026C
:102D8000B0915602ED0130E020E01097A1F42081CF
:102D90003181820F931F20915302309154022817E2
:102DA000390709F061C0F0935402E0935302DF91B8
:102DB000CF910895EA01CE17DF07E8F54A815B81DC
:102DC0009E0141155105B1F7E901FB83EA83499161
:102DD0005991C40FD51FEC17FD0761F480819181D3
:102DE0000296840F951FE9019983888382819381DC
:102DF0009B838A83F0E0E0E012968D919C9113977B
:102E00000097B9F52D913C911197CD010296820F53
:102E1000931F20915302309154022817390739F635
:102E2000309751F51092560210925502B093540209
:102E3000A0935302BCCFD383C28340815181840FBE
:102E4000951FC817D90761F44E5F5F4F888199813C
:102E5000480F591F518340838A819B8193838283CA
:102E60002115310509F0B0CFF0935602E0935502D9
:102E70009ECFFD01DC01C0CF13821282D7CFB0E01C
:102E8000A0E0E5E4F7E10C947C148C01009751F488
:102E9000CB010E941A168C01C801CDB7DEB7E0E164
:102EA0000C949814FC01E60FF71F9C012250310985
:102EB000E217F30708F49DC0D901CD91DC91119779
:102EC000C617D70798F0C530D10530F3CE01049767
:102ED0008617970708F3C61BD70B2297C193D19388
:102EE0006D937C93CF010E94B616D6CF5B01AC1ACE
:102EF000BD0A4C018C0E9D1EA0915502B091560248
:102F0000512C412CF12CE12C109731F5809153027A
:102F1000909154028815990509F05CC04616570631
:102F200008F058C080911B0190911C01009741F45A
:102F30008DB79EB740911F0150912001841B950BC6
:102F4000E817F90708F055C0F0935402E0935302D4
:102F5000F90171836083A0CF8D919C911197129696
:102F60006C90129713967C901397A815B90559F594
:102F70006C0142E0C40ED11CCA14DB0420F1AC0188
:102F80004A195B09DA011296159780F06282738202
:102F900051834083D9016D937C93E114F10471F066
:102FA000D7011396FC93EE93129776CF22968C0F4F
:102FB0009D1FF90191838083F301EFCFF0935602B7
:102FC000E093550269CF4816590608F42C017D019B
:102FD000D3019ACFCB010E941A167C01009749F0C9
:102FE000AE01B8010E940418C8010E94B6168701FC
:102FF00053CF10E000E050CF9111089581568A51CF
:1030000008F4805285580895FB01DC0102C001904C
:103010000D9241505040D8F708956817790768F429
:10302000FB01DC01E40FF51FA40FB51F02C00290E5
:103030000E9241505040D8F708950C940418FB01AB
:10304000DC018D91019080190110D9F3990B08953D
:10305000FB01DC0101900D920020E1F70895FB01D6
:10306000DC014150504030F08D910190801919F4ED
:103070000020B9F7881B990B0895FB015191552346
:10308000A9F0BF01DC014D9145174111E1F759F459
:10309000CD010190002049F04D9140154111C9F337
:1030A000FB014111EFCF81E090E001970895F89482
:1030B000FFCF000070420000C841010000704200D4
:1030C00000C84150001E0001FF0100000000005731
:1030D0000280000000000001052F045C044E05BFC3
:1030E000046B04B10463617365003A20000D0A00AB
:1030F0002020004155544F00542000482000460035
:107E0000112484B714BE81FFF0D085E080938100F7
:107E100082E08093C00088E18093C10086E0809377
:107E2000C20080E18093C4008EE0C9D0259A86E02C
:107E300020E33CEF91E0309385002093840096BBD3
:107E4000B09BFECF1D9AA8958150A9F7CC24DD24C4
:107E500088248394B5E0AB2EA1E19A2EF3E0BF2EE7
:107E6000A2D0813461F49FD0082FAFD0023811F036
:107E7000013811F484E001C083E08DD089C08234E0
:107E800011F484E103C0853419F485E0A6D080C0E4
:107E9000853579F488D0E82EFF2485D0082F10E0AE
:107EA000102F00270E291F29000F111F8ED06801E7
:107EB0006FC0863521F484E090D080E0DECF843638
:107EC00009F040C070D06FD0082F6DD080E0C81688
:107ED00080E7D80618F4F601B7BEE895C0E0D1E017
:107EE00062D089930C17E1F7F0E0CF16F0E7DF06D8
:107EF00018F0F601B7BEE89568D007B600FCFDCFD4
:107F0000A601A0E0B1E02C9130E011968C91119780
:107F100090E0982F8827822B932B1296FA010C0160
:107F200087BEE89511244E5F5F4FF1E0A038BF0790
:107F300051F7F601A7BEE89507B600FCFDCF97BE46
:107F4000E89526C08437B1F42ED02DD0F82E2BD052
:107F50003CD0F601EF2C8F010F5F1F4F84911BD097
:107F6000EA94F801C1F70894C11CD11CFA94CF0C13
:107F7000D11C0EC0853739F428D08EE10CD085E9AC
:107F80000AD08FE07ACF813511F488E018D01DD067
:107F900080E101D065CF982F8091C00085FFFCCF94
:107FA0009093C60008958091C00087FFFCCF809118
:107FB000C00084FD01C0A8958091C6000895E0E648
:107FC000F0E098E1908380830895EDDF803219F02E
:107FD00088E0F5DFFFCF84E1DECF1F93182FE3DFCA
:107FE0001150E9F7F2DF1F91089580E0E8DFEE27F6
:047FF000FF270994CA
:027FFE00040479
:00000001FF
